{
  "contractName": "Campaign",
  "abi": [
    {
      "inputs": [
        {
          "internalType": "uint256",
          "name": "minimum",
          "type": "uint256"
        },
        {
          "internalType": "address",
          "name": "creator",
          "type": "address"
        }
      ],
      "stateMutability": "payable",
      "type": "constructor"
    },
    {
      "inputs": [
        {
          "internalType": "address",
          "name": "",
          "type": "address"
        }
      ],
      "name": "approvers",
      "outputs": [
        {
          "internalType": "bool",
          "name": "",
          "type": "bool"
        }
      ],
      "stateMutability": "view",
      "type": "function"
    },
    {
      "inputs": [],
      "name": "manager",
      "outputs": [
        {
          "internalType": "address",
          "name": "",
          "type": "address"
        }
      ],
      "stateMutability": "view",
      "type": "function"
    },
    {
      "inputs": [],
      "name": "minimumContribution",
      "outputs": [
        {
          "internalType": "uint256",
          "name": "",
          "type": "uint256"
        }
      ],
      "stateMutability": "view",
      "type": "function"
    },
    {
      "inputs": [
        {
          "internalType": "uint256",
          "name": "",
          "type": "uint256"
        }
      ],
      "name": "requests",
      "outputs": [
        {
          "internalType": "string",
          "name": "description",
          "type": "string"
        },
        {
          "internalType": "uint256",
          "name": "amount",
          "type": "uint256"
        },
        {
          "internalType": "address",
          "name": "recipient",
          "type": "address"
        },
        {
          "internalType": "bool",
          "name": "complete",
          "type": "bool"
        },
        {
          "internalType": "uint256",
          "name": "approval_count",
          "type": "uint256"
        }
      ],
      "stateMutability": "view",
      "type": "function"
    },
    {
      "inputs": [],
      "name": "contribute",
      "outputs": [],
      "stateMutability": "payable",
      "type": "function"
    },
    {
      "inputs": [
        {
          "internalType": "string",
          "name": "_description",
          "type": "string"
        },
        {
          "internalType": "uint256",
          "name": "_amount",
          "type": "uint256"
        },
        {
          "internalType": "address",
          "name": "_recipient",
          "type": "address"
        }
      ],
      "name": "createRequest",
      "outputs": [],
      "stateMutability": "nonpayable",
      "type": "function"
    },
    {
      "inputs": [
        {
          "internalType": "uint256",
          "name": "index",
          "type": "uint256"
        }
      ],
      "name": "approveRequest",
      "outputs": [],
      "stateMutability": "nonpayable",
      "type": "function"
    },
    {
      "inputs": [
        {
          "internalType": "uint256",
          "name": "index",
          "type": "uint256"
        }
      ],
      "name": "finalizeRequest",
      "outputs": [],
      "stateMutability": "payable",
      "type": "function"
    },
    {
      "inputs": [],
      "name": "getRequests",
      "outputs": [
        {
          "components": [
            {
              "internalType": "string",
              "name": "description",
              "type": "string"
            },
            {
              "internalType": "uint256",
              "name": "amount",
              "type": "uint256"
            },
            {
              "internalType": "address",
              "name": "recipient",
              "type": "address"
            },
            {
              "internalType": "bool",
              "name": "complete",
              "type": "bool"
            },
            {
              "internalType": "uint256",
              "name": "approval_count",
              "type": "uint256"
            }
          ],
          "internalType": "struct Campaign.Request[]",
          "name": "",
          "type": "tuple[]"
        }
      ],
      "stateMutability": "view",
      "type": "function"
    }
  ],
  "bytecode": "0x60806040526040516200114e3803806200114e8339818101604052810190620000299190620000a7565b80600160006101000a81548173ffffffffffffffffffffffffffffffffffffffff021916908373ffffffffffffffffffffffffffffffffffffffff1602179055508160028190555050506200015a565b6000815190506200008a8162000126565b92915050565b600081519050620000a18162000140565b92915050565b60008060408385031215620000bb57600080fd5b6000620000cb8582860162000090565b9250506020620000de8582860162000079565b9150509250929050565b6000620000f582620000fc565b9050919050565b600073ffffffffffffffffffffffffffffffffffffffff82169050919050565b6000819050919050565b6200013181620000e8565b81146200013d57600080fd5b50565b6200014b816200011c565b81146200015757600080fd5b50565b610fe4806200016a6000396000f3fe6080604052600436106100865760003560e01c80638813ce12116100595780638813ce12146101505780638a9cfd551461017b578063937e09b1146101a4578063d7bb99ba146101cf578063d7d1bbdb146101d957610086565b8063034410061461008b5780630a144391146100a7578063481c6a75146100e457806381d12c581461010f575b600080fd5b6100a560048036038101906100a09190610b65565b610202565b005b3480156100b357600080fd5b506100ce60048036038101906100c99190610ad5565b610349565b6040516100db9190610d96565b60405180910390f35b3480156100f057600080fd5b506100f9610369565b6040516101069190610d59565b60405180910390f35b34801561011b57600080fd5b5061013660048036038101906101319190610b65565b61038f565b604051610147959493929190610db1565b60405180910390f35b34801561015c57600080fd5b50610165610497565b6040516101729190610d74565b60405180910390f35b34801561018757600080fd5b506101a2600480360381019061019d9190610afe565b61061d565b005b3480156101b057600080fd5b506101b961078e565b6040516101c69190610e0b565b60405180910390f35b6101d7610794565b005b3480156101e557600080fd5b5061020060048036038101906101fb9190610b65565b61080f565b005b600160009054906101000a900473ffffffffffffffffffffffffffffffffffffffff1673ffffffffffffffffffffffffffffffffffffffff163373ffffffffffffffffffffffffffffffffffffffff161461025c57600080fd5b60006004828154811061026b57fe5b9060005260206000209060040201905060026005548161028757fe5b0481600301541161029757600080fd5b8060020160149054906101000a900460ff16156102b357600080fd5b60008160020160009054906101000a900473ffffffffffffffffffffffffffffffffffffffff1690508073ffffffffffffffffffffffffffffffffffffffff166108fc83600101549081150290604051600060405180830381858888f19350505050158015610326573d6000803e3d6000fd5b5060018260020160146101000a81548160ff021916908315150217905550505050565b60036020528060005260406000206000915054906101000a900460ff1681565b600160009054906101000a900473ffffffffffffffffffffffffffffffffffffffff1681565b6004818154811061039c57fe5b9060005260206000209060040201600091509050806000018054600181600116156101000203166002900480601f0160208091040260200160405190810160405280929190818152602001828054600181600116156101000203166002900480156104485780601f1061041d57610100808354040283529160200191610448565b820191906000526020600020905b81548152906001019060200180831161042b57829003601f168201915b5050505050908060010154908060020160009054906101000a900473ffffffffffffffffffffffffffffffffffffffff16908060020160149054906101000a900460ff16908060030154905085565b60606004805480602002602001604051908101604052809291908181526020016000905b8282101561061457838290600052602060002090600402016040518060a0016040529081600082018054600181600116156101000203166002900480601f0160208091040260200160405190810160405280929190818152602001828054600181600116156101000203166002900480156105775780601f1061054c57610100808354040283529160200191610577565b820191906000526020600020905b81548152906001019060200180831161055a57829003601f168201915b50505050508152602001600182015481526020016002820160009054906101000a900473ffffffffffffffffffffffffffffffffffffffff1673ffffffffffffffffffffffffffffffffffffffff1673ffffffffffffffffffffffffffffffffffffffff1681526020016002820160149054906101000a900460ff16151515158152602001600382015481525050815260200190600101906104bb565b50505050905090565b600160009054906101000a900473ffffffffffffffffffffffffffffffffffffffff1673ffffffffffffffffffffffffffffffffffffffff163373ffffffffffffffffffffffffffffffffffffffff161461067757600080fd5b61067f61096b565b6040518060a001604052808581526020018481526020018373ffffffffffffffffffffffffffffffffffffffff168152602001600015158152602001600081525090506004819080600181540180825580915050600190039060005260206000209060040201600090919091909150600082015181600001908051906020019061070a9291906109b2565b506020820151816001015560408201518160020160006101000a81548173ffffffffffffffffffffffffffffffffffffffff021916908373ffffffffffffffffffffffffffffffffffffffff16021790555060608201518160020160146101000a81548160ff02191690831515021790555060808201518160030155505050505050565b60025481565b6002543410156107a357600080fd5b6001600360003373ffffffffffffffffffffffffffffffffffffffff1673ffffffffffffffffffffffffffffffffffffffff16815260200190815260200160002060006101000a81548160ff021916908315150217905550600560008154809291906001019190505550565b60006004828154811061081e57fe5b90600052602060002090600402019050600360003373ffffffffffffffffffffffffffffffffffffffff1673ffffffffffffffffffffffffffffffffffffffff16815260200190815260200160002060009054906101000a900460ff1661088457600080fd5b60008083815260200190815260200160002060003373ffffffffffffffffffffffffffffffffffffffff1673ffffffffffffffffffffffffffffffffffffffff16815260200190815260200160002060009054906101000a900460ff16156108eb57600080fd5b600160008084815260200190815260200160002060003373ffffffffffffffffffffffffffffffffffffffff1673ffffffffffffffffffffffffffffffffffffffff16815260200190815260200160002060006101000a81548160ff02191690831515021790555080600301600081548092919060010191905055505050565b6040518060a001604052806060815260200160008152602001600073ffffffffffffffffffffffffffffffffffffffff168152602001600015158152602001600081525090565b828054600181600116156101000203166002900490600052602060002090601f016020900481019282601f106109f357805160ff1916838001178555610a21565b82800160010185558215610a21579182015b82811115610a20578251825591602001919060010190610a05565b5b509050610a2e9190610a32565b5090565b610a5491905b80821115610a50576000816000905550600101610a38565b5090565b90565b600081359050610a6681610f80565b92915050565b600082601f830112610a7d57600080fd5b8135610a90610a8b82610e53565b610e26565b91508082526020830160208301858383011115610aac57600080fd5b610ab7838284610f2d565b50505092915050565b600081359050610acf81610f97565b92915050565b600060208284031215610ae757600080fd5b6000610af584828501610a57565b91505092915050565b600080600060608486031215610b1357600080fd5b600084013567ffffffffffffffff811115610b2d57600080fd5b610b3986828701610a6c565b9350506020610b4a86828701610ac0565b9250506040610b5b86828701610a57565b9150509250925092565b600060208284031215610b7757600080fd5b6000610b8584828501610ac0565b91505092915050565b6000610b9a8383610cc5565b905092915050565b610bab81610ee5565b82525050565b610bba81610ee5565b82525050565b6000610bcb82610e8f565b610bd58185610eb2565b935083602082028501610be785610e7f565b8060005b85811015610c235784840389528151610c048582610b8e565b9450610c0f83610ea5565b925060208a01995050600181019050610beb565b50829750879550505050505092915050565b610c3e81610ef7565b82525050565b610c4d81610ef7565b82525050565b6000610c5e82610e9a565b610c688185610ec3565b9350610c78818560208601610f3c565b610c8181610f6f565b840191505092915050565b6000610c9782610e9a565b610ca18185610ed4565b9350610cb1818560208601610f3c565b610cba81610f6f565b840191505092915050565b600060a0830160008301518482036000860152610ce28282610c53565b9150506020830151610cf76020860182610d3b565b506040830151610d0a6040860182610ba2565b506060830151610d1d6060860182610c35565b506080830151610d306080860182610d3b565b508091505092915050565b610d4481610f23565b82525050565b610d5381610f23565b82525050565b6000602082019050610d6e6000830184610bb1565b92915050565b60006020820190508181036000830152610d8e8184610bc0565b905092915050565b6000602082019050610dab6000830184610c44565b92915050565b600060a0820190508181036000830152610dcb8188610c8c565b9050610dda6020830187610d4a565b610de76040830186610bb1565b610df46060830185610c44565b610e016080830184610d4a565b9695505050505050565b6000602082019050610e206000830184610d4a565b92915050565b6000604051905081810181811067ffffffffffffffff82111715610e4957600080fd5b8060405250919050565b600067ffffffffffffffff821115610e6a57600080fd5b601f19601f8301169050602081019050919050565b6000819050602082019050919050565b600081519050919050565b600081519050919050565b6000602082019050919050565b600082825260208201905092915050565b600082825260208201905092915050565b600082825260208201905092915050565b6000610ef082610f03565b9050919050565b60008115159050919050565b600073ffffffffffffffffffffffffffffffffffffffff82169050919050565b6000819050919050565b82818337600083830152505050565b60005b83811015610f5a578082015181840152602081019050610f3f565b83811115610f69576000848401525b50505050565b6000601f19601f8301169050919050565b610f8981610ee5565b8114610f9457600080fd5b50565b610fa081610f23565b8114610fab57600080fd5b5056fea26469706673582212203257b06fa6bf16a607e13d992a2a8336298f4a24bafb87fc2a34b0aa0627643264736f6c63430006060033",
  "immutableReferences": {},
  "source": "pragma solidity >=0.6.6 < 0.8.0;\npragma experimental ABIEncoderV2;\ncontract CampaignFactory {\n    Campaign[] public deployedCampaigns;\n\n    function createCampaign(uint minimum) public {\n        Campaign newCampaign = new Campaign(minimum, msg.sender);\n        deployedCampaigns.push(newCampaign);\n    }\n\n    function getDeployedCampaigns() public view returns (Campaign[] memory) {\n        return deployedCampaigns;\n    }\n}\ncontract Campaign {\n    struct Request {\n        string description;\n        uint amount;\n        address recipient;\n        bool complete;\n        uint approval_count;\n    }\n    // mapping cannot be declared inside the struct,\n    // therefore this program use request index and address as a pointer instead.\n    mapping(uint => mapping(address => bool)) approvals;\n\n    address public manager;\n    uint public minimumContribution;\n    //address[] public approvers;\n    mapping (address => bool) public approvers;\n    Request[] public requests;\n    uint approvers_count;\n    modifier restricted() {\n        require(msg.sender == manager);\n        _;\n    }\n    \n    //constructor (uint minimum) public {\n    constructor (uint minimum, address creator) public payable{\n        //manager = msg.sender;\n        manager = creator;\n        minimumContribution = minimum;\n    }\n    \n    function contribute() public payable {\n        require(msg.value >= minimumContribution);\n        //approvers.push(msg.sender);\n        approvers[msg.sender] = true;\n        approvers_count++;\n    }\n\n    function createRequest(string memory _description, uint _amount, address _recipient) public restricted {\n        Request memory new_request = Request({\n            description: _description,\n            amount: _amount,\n            recipient: _recipient,\n            complete: false,\n            approval_count: 0\n        });\n\n        requests.push(new_request);\n    }\n\n    function approveRequest(uint index) public {\n        Request storage request = requests[index];\n\n        // @dev: check if being one of the approvers\n        require(approvers[msg.sender]);\n        // @dev: check if have not approved before\n        // @old: require(!request.approvals[msg.sender]);\n        require(!approvals[index][msg.sender]);\n\n        // @dev: update status to already approved\n        // @old: request.approvals[msg.sender] = true;\n        approvals[index][msg.sender] = true;\n        request.approval_count++;\n    }\n\n    function finalizeRequest(uint index) public payable restricted {\n        Request storage request = requests[index];\n\n        // @dev: check if majority agrees with the request\n        require(request.approval_count > (approvers_count / 2));\n        // @dev: check if have not done before\n        require(!request.complete);\n        address payable rec = payable (request.recipient);\n\n        //request.recipient.transfer(request.amount);\n        rec.transfer(request.amount);\n        request.complete = true;\n    }\n\n    function getRequests() public view returns (Request[] memory) {\n        return requests;\n    }\n}",
  "sourcePath": "/home/vee/github/blockchain/60050167/contracts/campaign.sol",
  "compiler": {
    "name": "solc",
    "version": "0.6.6+commit.6c089d02.Emscripten.clang"
  },
  "schemaVersion": "3.3.2",
  "updatedAt": "2020-11-24T14:05:32.359Z",
  "devdoc": {
    "methods": {}
  },
  "userdoc": {
    "methods": {}
  }
}